:1010000080AD0020F18700000D4D0100DD8700005C
:10101000DD870000DD870000DD87000000000000A4
:10102000000000000000000000000000C98900006E
:10103000DD8700000000000095890000DD870000CA
:101040009D8B000045D200009D8B00009D8B000011
:101050009D8B00009D8B00009D8B00009D8B0000F0
:101060009D8B0000DDFC0000EDFC00009D8B00006E
:101070009D8B00009D8B00009D8B00009D8B0000D0
:101080009D8B00009D8B00009D8B00009D8B0000C0
:10109000A9D200009D8B00009D8B00009D8B00005D
:1010A0009D8B00009D8B00009D8B00009D8B0000A0
:1010B0009D8B00009D8B00009D8B00009D8B000090
:1010C0009D8B00009D8B00009D8B00009D8B000080
:1010D0009D8B00009D8B00009D8B00009D8B000070
:1010E0009D8B00009D8B00009D8B00009D8B000060
:1010F0009D8B00009D8B00009D8B00009D8B000050
:10110000014B1B689B68184700000020014B1B68BF
:101110001B69184700000020014B1B685B691847DA
:1011200000000020014B1B689B691847000000204D
:10113000014B1B68DB69184700000020014B1B684E
:101140001B6A184700000020014B1B68DB6A184728
:101150000000002010B4034C2468E468A44610BCCE
:10116000604700BF0000002030B50346114890F9E9
:101170001C209A4219DD90F924209A4217DA9A1A13
:10118000846AA05C0C4A15569D420DD00E3200298F
:1011900018BF01309442C0B206D129B1013BDBB285
:1011A000012B01D80130C0B230BD0D20FCE700207A
:1011B000FAE700BFE80500207C5F010008B5054B99
:1011C00093F91C30984203DAFFF7CEFF024B1B560F
:1011D000184608BDE80500207C5F010010B51C4CD6
:1011E00094F82C3073B9012384F82C3000F09EF869
:1011F00048B1184BA362D823236284F82430082313
:10120000A361237710BD00F0A7F80028F1D100F00A
:10121000ADF80028EDD100F06BF838B10E4BA362A9
:10122000D823236284F824300423E9E700F06AF825
:101230000028F3D100F070F80028EFD100F080F81A
:101240000028EBD14FF4DF71742000F019F800BFD3
:10125000E8050020B75F01008A5F0100BFF34F8FF0
:101260000549064BCA6802F4E0621343CB60BFF342
:101270004F8F00BFFDE700BF00ED00E00400FA055E
:101280001FB572B6134B5D688DB9FFF7E7FFB2FB70
:10129000F6F2DCB20133002AF9D104F110036B44F9
:1012A00003F80C2C0A2234B901A8A847EDE702463E
:1012B00000230A26EDE7631E04AEDCB256FA83F380
:1012C000B0FBF2F602FB1600303003F80C0C30468F
:1012D000E9E700BF400A00204FF08052034BD2F8EC
:1012E00030111960D2F834215A6070477C0A00200E
:1012F000034B1868A0F10F0358425841704700BFD4
:101300007C0A0020034B1868A0F10A035842584198
:10131000704700BF7C0A0020034B1868A0F10E0341
:1013200058425841704700BF7C0A0020034B1868A0
:10133000A0F1100358425841704700BF7C0A0020BA
:10134000044B1868062803D0431C58425841704784
:10135000012070477C0A0020034B1868A0F10D03A0
:1013600058425841704700BF7C0A0020034B186860
:10137000A0F1080358425841704700BF7C0A002082
:101380004FF0FF0C1CEAD0521EBF1CEAD15392EA68
:101390000C0F93EA0C0F6FD01A4480EA010C400244
:1013A00018BF5FEA41211ED04FF0006343EA50109E
:1013B00043EA5111A0FB01310CF00040B1F5000FE0
:1013C0003EBF490041EAD3715B0040EA010062F18F
:1013D0007F02FD2A1DD8B3F1004F40EBC25008BF79
:1013E00020F00100704790F0000F0CF0004C08BF97
:1013F00049024CEA502040EA51207F3AC2BFD2F164
:10140000FF0340EAC250704740F400004FF0000371
:10141000013A5DDC12F1190FDCBF00F000407047AB
:10142000C2F10002410021FA02F1C2F1200200FAE9
:1014300002FC5FEA310040F1000053EA4C0308BFB0
:1014400020EADC70704792F0000F00F0004C02BF01
:10145000400010F4000F013AF9D040EA0C0093F07C
:10146000000F01F0004C02BF490011F4000F013BD6
:10147000F9D041EA0C018FE70CEAD15392EA0C0F44
:1014800018BF93EA0C0F0AD030F0004C18BF31F0AF
:10149000004CD8D180EA010000F00040704790F085
:1014A000000F17BF90F0004F084691F0000F91F029
:1014B000004F14D092EA0C0F01D142020FD193EAEF
:1014C0000C0F03D14B0218BF084608D180EA010077
:1014D00000F0004040F0FE4040F40000704740F053
:1014E000FE4040F44000704780F0004002E000BF42
:1014F00081F0004142001FBF5FEA410392EA030FFF
:101500007FEA226C7FEA236C6AD04FEA1262D2EB48
:101510001363C1BFD218414048404140B8BF5B424D
:10152000192B88BF704710F0004F40F4000020F0E6
:101530007F4018BF404211F0004F41F4000121F0FC
:101540007F4118BF494292EA030F3FD0A2F1010246
:1015500041FA03FC10EB0C00C3F1200301FA03F184
:1015600000F0004302D5494260EB4000B0F5000FA7
:1015700013D3B0F1807F06D340084FEA310102F166
:101580000102FE2A51D2B1F1004F40EBC25008BF18
:1015900020F0010040EA03007047490040EB0000E2
:1015A000013A28BFB0F5000FEDD2B0FA80FCACF1E3
:1015B000080CB2EB0C0200FA0CF0AABF00EBC25010
:1015C00052421843BCBFD0401843704792F0000FFE
:1015D00081F4000106BF80F400000132013BB5E751
:1015E0004FEA41037FEA226C18BF7FEA236C21D0C7
:1015F00092EA030F04D092F0000F08BF084670472C
:1016000090EA010F1CBF0020704712F07F4F04D1F9
:10161000400028BF40F00040704712F100723CBF0C
:1016200000F50000704700F0004343F0FE4040F436
:10163000000070477FEA226216BF08467FEA2363F4
:101640000146420206BF5FEA412390EA010F40F4DF
:10165000800070474FF0000304E000BF10F000432B
:1016600048BF40425FEA000C08BF704743F0964312
:1016700001464FF000001CE050EA010208BF70472D
:101680004FF000030AE000BF50EA010208BF7047B4
:1016900011F0004302D5404261EB41015FEA010CC9
:1016A00002BF84460146002043F0B64308BFA3F1C1
:1016B0008053A3F50003BCFA8CF2083AA3EBC253A3
:1016C00010DB01FA02FC634400FA02FCC2F12002C2
:1016D000BCF1004F20FA02F243EB020008BF20F0F9
:1016E0000100704702F1200201FA02FCC2F120025F
:1016F00050EA4C0021FA02F243EB020008BF20EA54
:10170000DC7070474FF0FF3C06E000BF4FF0010C6B
:1017100002E000BF4FF0010C4DF804CD4FEA40024B
:101720004FEA41037FEA226C18BF7FEA236C11D095
:1017300001B052EA530C18BF90EA010F58BFB2EB48
:10174000030088BFC81738BF6FEAE17018BF40F0C8
:10175000010070477FEA226C02D15FEA402C05D17C
:101760007FEA236CE4D15FEA412CE1D05DF8040B01
:10177000704700BF844608466146FFE70FB5FFF794
:10178000C9FF002848BF10F1000F0FBD4DF808ED4C
:10179000FFF7F4FF0CBF012000205DF808FB00BF3D
:1017A0004DF808EDFFF7EAFF34BF012000205DF897
:1017B00008FB00BF4DF808EDFFF7E0FF94BF0120E4
:1017C00000205DF808FB00BF4DF808EDFFF7D2FFE1
:1017D00094BF012000205DF808FB00BF4DF808ED24
:1017E000FFF7C8FF34BF012000205DF808FB00BFF1
:1017F0004FEA4002B2F1FE4F0FD34FF09E03B3EB1E
:1018000012620DD94FEA002343F0004310F0004F5D
:1018100023FA02F018BF404270474FF000007047B3
:1018200012F1610F01D1420205D110F0004008BF52
:101830006FF0004070474FF0000070477BB972B9FD
:101840000029BEBF00204FF0004106E008BF00287D
:101850001CBF6FF000414FF0FF3000F057B8ADF102
:10186000080C6DE904CE002909DB002B1ADB00F01F
:10187000B0F8DDF804E0DDE9022304B0704740422F
:1018800061EB4101002B1BDB00F0A3F8DDF804E065
:10189000DDE9022304B0404261EB4101524263EBB7
:1018A00043037047524263EB430300F092F8DDF8C4
:1018B00004E0DDE9022304B0404261EB41017047DE
:1018C000524263EB430300F084F8DDF804E0DDE905
:1018D000022304B0524263EB4303704753B94AB941
:1018E000002908BF00281CBF4FF0FF314FF0FF3028
:1018F00000F00CB8ADF1080C6DE904CE00F069F809
:10190000DDF804E0DDE9022304B07047704700BF52
:1019100010F8012B11F8013B012A28BF9A42F7D099
:10192000D01A7047034613F8012B002AFBD1181A6E
:101930000138704708B5FFF7CFFCBDE80840FFF756
:101940004DBC801A00F3070038B540B20D4659B2BD
:101950001446FFF733FC0023287020446B7040B21C
:1019600038BD0023036070477047002070474FF078
:10197000FF3070474FF0FF307047704700207047CE
:101980004FF0FF3070470020704700207047002361
:10199000037070470022FFF7D4BF002070474FF05C
:1019A000FF3070474FF0FF3070474FF0FF30704707
:1019B000704700280CBF6FF0150000207047002012
:1019C00070470723037000207047002070470020F5
:1019D00070472DE9F04786468C460846089E154616
:1019E00074461946002B40F0C2808542B2FA82F25A
:1019F00045D94AB1C2F1200300FA02FC2EFA03F3E2
:101A0000954043EA0C0C94404FEA154EA8B2BCFB3B
:101A1000FEF8230C0EFB18CC08FB00F943EA0C433C
:101A2000994528D9EB1808F1FF3704D2994502D916
:101A3000A8F102072B44A3EB0903A4B2B3FBFEFCFD
:101A40000EFB1C330CFB00F044EA0344A04214D903
:101A50002C190CF1FF3304D2A04202D9ACF10203DD
:101A60002C44241A43EA07401EB1D44000233460BA
:101A70007360BDE8F0874746DDE76346F1E792BB58
:101A8000431B01214FEA154EAFB2B3FBFEFC200C05
:101A90000EFB1C330CFB07F840EA0343984562D960
:101AA000EB180CF1FF3004D2984502D9ACF10200DA
:101AB0002B44A3EB0803A4B2B3FBFEFC0EFB1C33C8
:101AC0000CFB07F744EA0344A7424ED92C190CF14A
:101AD000FF3304D2A74202D9ACF102032C44E41B29
:101AE00043EA0040C0E7C2F1200320FA03F1954029
:101AF00090402EFA03F303434FEA154EAFB2B1FB09
:101B0000FEFC0EFB1C10190C0CFB07F841EA00410F
:101B1000884504FA02F422D969180CF1FF3004D286
:101B2000884502D9ACF102002944A1EB08019BB21F
:101B3000B1FBFEFC0EFB1C110CFB07F743EA014353
:101B40009F420ED9EB180CF1FF3104D29F4202D90B
:101B5000ACF102012B44DB1B41EA004192E76046F5
:101B6000E3E76146F7E76046A3E76346B7E78342EA
:101B700006D916B9002108467BE7C6E900E0F9E777
:101B8000B3FA83F78FB9834201D3724508D8BEEB0D
:101B9000020460EB030301209C461EB9002168E7A4
:101BA0003846FAE7C6E9004CF8E7C7F1200CBB401D
:101BB00022FA0CF41C432EFA0CF120FA0CF3B84074
:101BC00001434FEA14490EFA07F5B3FBF9F81FFA7F
:101BD00084FE09FB18300B0C08FB0EFA43EA0043A5
:101BE0009A4502FA07F240D9E31808F1FF3004D20F
:101BF0009A4502D9A8F102002344A3EB0A0389B253
:101C0000B3FBF9F809FB183308FB0EFE41EA034168
:101C10008E452CD9611808F1FF3304D28E4502D9C4
:101C2000A8F10203214443EA0040A0FB0298A1EB83
:101C30000E014145CE46434602D306D14D4504D25E
:101C4000B9EB020E68EB04030138002EA6D0B5EB09
:101C50000E0261EB030101FA0CFC22FA07F34CEAD5
:101C60000303F940C6E9003198E74046C5E743461B
:101C7000D9E70000000000002DE9F04794B006F01D
:101C8000BFF904F0D1F9002840F09080642011F0F1
:101C900054FEB948B94D12F0BDF8022212231521A5
:101CA0000092CDE90131B64840F2E9711A2312F0F1
:101CB000B1F8B44812F0AEF8B34812F0ABF8B3483C
:101CC00012F0A8F8B24812F0A5F8B24812F0A2F843
:101CD000B14812F09FF8B14B18681B798DF81C3091
:101CE000AF4B06909A8818689B798DF84630AD4BBB
:101CF000109018681B798DF82430AB4BADF8442058
:101D000008909A8818689B798DF84E30A74B1290EE
:101D100018681B798DF82C30A54B0A9018680E9026
:101D20009B88A448ADF84C20ADF83C3012F072F816
:101D3000A14BA248059312F06DF8A14B8CA7D7E9EF
:101D4000006718681B790C908DF8343006F040F964
:101D50000446421E12F8013F63BB052206A9204635
:101D600013F041FE70BB974812F054F8122315226D
:101D7000CDE90132022200921A2340F2E971804833
:101D800012F048F8904812F045F8904812F042F8E6
:101D90008F4812F03FF84FF080528E48D2F8A830AA
:101DA000D2F8A4209BB212F035F8CFE701200FF053
:101DB000EDFF66E7E95C01F00301012908BF20336C
:101DC0001370C7E7072210A9204613F00CFEB0BB22
:101DD00013F08BFD804AA0FB020302FB0131C00B14
:101DE00040EA41407D4A1423C90BFFF727FD044612
:101DF000194610463B463246FFF720FD80461946FD
:101E000010460023764AFFF719FD81461946104611
:101E10000023714AFFF712FD82461946104600233F
:101E20004FF47A72FFF70AFDCDF800A0CDE9010268
:101E30004B466C484246214611F0ECFF86E70522EE
:101E400008A9204613F0CFFD8046C0B96648DFF8E8
:101E50009C91DFF89CA111F0DDFF4446DFF89481EE
:101E600098F80020E3B29A427FF670AF09EBC30303
:101E7000D3E90023504611F0CDFF0134F0E70722EB
:101E800012A9204613F0AFFD20B900F053FB01204A
:101E900003F05CF805220AA9204613F0A4FD804651
:101EA00048B900F047FB652001F05EF9012011F010
:101EB00044FD4046ECE706220EA9204613F093FDB0
:101EC000804618B900F036FB6620EDE7042205A92C
:101ED000204613F088FDD8B94748436881681B68DD
:101EE00002691B030AD44549454840F2ED3212F01D
:101EF00004F8424840F2ED3111F0F6FF136823F484
:101F0000002313600B684FF4C022132198471DE78C
:101F100005220CA9204613F066FD18BB13F0E5FC62
:101F20004FF49C620023FFF789FC104619464E22AD
:101F30000023FFF783FC04461946104600230D22B8
:101F4000FFF77CFC2F4B3049D2B2C0B253F822309D
:101F50002E4AE4B252F8202051F824102C4811F0F7
:101F600059FFF3E62B4811F055FFEFE6AFF3008081
:101F700000A493D600000000276A01001E8C010017
:101F8000676A0100C66A0100FB6A01002B6B010051
:101F90005C6B0100906B0100C16B010021700100BE
:101FA0007D6D0100846D0100896D0100906D01005F
:101FB000956D0100F46B010064667500276C0100EB
:101FC000E36D01004B6C0100836C01009B6C010010
:101FD000AA6C0100CB6C010040420F000060D71DCD
:101FE00000879303E56C01000A6D0100000C0020DE
:101FF000DC6C0100BD7A0020705B01001B6D0100EC
:102000004C6D010028600100746001005C600100FB
:10201000646D01006C6D01002DE9F04FD0E90063A3
:1020200089B087680393838905930D46B368039944
:102030005B6806AA30469847002831DBDDE9064B8D
:10204000A7FB042307FB0B3804920498DFF8609089
:1020500015A3D3E900234146FFF740FC049B4FF052
:10206000FF3A9A4579EB0803074619D3A5FB0443C9
:1020700005FB0B3529460CA3D3E900232046FFF7C7
:102080002DFCA24579EB0505034609D38742B268CA
:1020900006D305990091146803993A463046A04743
:1020A00009B0BDE8F08F00BF00CA9A3B00000000F5
:1020B000FFC99A3B10B5144C2378082B02D0102B83
:1020C00011D010BD114A1248032112F017FC114A19
:1020D000D4F805301360D4F809305360BDE81040DF
:1020E0000D480BF09FBDA2790C498B5C0F2B02D8D9
:1020F00001338B54E5E76379DF2BE2D8A178601DCB
:10210000BDE8104000F0F2BB987A0020D4680100CE
:10211000785E0100907A0020F8020020907900207B
:1021200010B50C484FF48072002113F07AFC0024A3
:102130004FF4004000210FF0FBFD064A4FF480737E
:1021400012F8011B0F2998BF02F8014C013BF7D18F
:10215000EEE700BF9079002008B50378022B0ED17E
:1021600007480BF0F9FD18B9BDE80840FFF7A2BF1A
:10217000044A0548BDE80840012112F0BFBB08BD74
:10218000987A0020E6680100785E010030B50020F2
:1021900085B009F065FA48B9184A1948012112F0CA
:1021A000ADFB6FF00504204605B030BD00230125CE
:1021B000694601930393029503F0A2F8041E06DA20
:1021C000104A23460E48012112F0A1FBEBE742F230
:1021D0001173029A92070BD0013BFAD10A4A0848C0
:1021E0006FF00A03022112F092FB6FF00A04DAE7A3
:1021F000039C002CD7D0054A2346E3E7046901007D
:10220000785E0100246901005C6901003D690100FC
:1022100070B5224D06460FCD86B001AC0FC42B68B9
:1022200023601F4B26B3029308238DF80E30002342
:10223000ADF8123001238DF814301A4A01258DF8BB
:102240001650D2F850362B43C2F8503601A80BF086
:10225000E1FB0446A0B1144A03462946134812F094
:1022600056FB2946022000F0DFFE204606B070BD76
:102270000122029308238DF805208DF80E30DCE74B
:102280000B480BF035FE0B480BF04CFE0A480821BA
:102290000BF062FE094B1D70E7E700BF605F0100B5
:1022A000592100000010004085690100785E01009E
:1022B0008C79002088790020807900207F790020A7
:1022C000074B08491A68084B1A60084B1A68084BF4
:1022D0001A60084A0B6813604B685360704700BF70
:1022E000A3690100A86901008C790020B16901008F
:1022F000887900208079002010B5244B93E80300F2
:1023000086B04FF080520090ADF8041092F8A940CA
:102310000290034608448DF80C00C3F3072050FADE
:1023200081F000228DF80D00CDE90422C3F30740AF
:102330001B0E50FA81F053FA81F18DF80F108DF8D1
:102340000E000DF10F011346E2180133082B01F8BE
:10235000012FF9D102A9002211F8013B1BB1552B25
:1023600001D0AA2B02D1083301F8013C0132102A16
:10237000F2D1074B029A1A60064B039A1A6004AB1B
:1023800003CB054A1060516006B010BDA4000010D8
:102390008C79002088790020807900202DE9F04F89
:1023A00083B000AF544A5548DFF85491032112F02E
:1023B000A5FA0020FFF784FFFFF72AFF0BF01CFDB2
:1023C0004FF08052002389F80330D2F8A4004D4921
:1023D000C9F807008988A9F80B10D2F8A810D2F81C
:1023E000A4006C4688B089B26A46474DD161042189
:1023F000C2E9055042F8101F4048DFF810B1DFF87D
:1024000010814FF4035103F0C1FF0221A5460320C0
:1024100000F048FCDBF80040DBF8045098F800605E
:102420003C4B240C44EA0544B2462D0C0022964253
:1024300053DC39490622072000F0C6FE9BF8003025
:10244000061E08BF0826B34238D154EA050335D02A
:1024500098F80030534531D1C7F804D08AB06A46A5
:102460002E4BC2E9053A0623C2E9084542F8103F5F
:10247000224800234FF4435103F088FF254A98F87F
:102480000000D7F804D042F8304002EBC00300212E
:1024900002EBC0025D600330082300F075FE98F87F
:1024A0000030013388F800300123002118464246ED
:1024B00000F06AFE0021082000F0F4FB9BF80030D9
:1024C00089F806A09E4218BF002389F80530002134
:1024D0004FF4A4700FF02CFC9CE754EA050107D0E0
:1024E000D3E90001A94208BFA04208BF1FFA82FA3F
:1024F000013208339BE700BFB6690100785E010036
:10250000F8020020A4000010BE690100907A0020AB
:10251000BD7A0020000C0020927A0020D6690100CC
:1025200008B5FFF7E9FE024B01221A7008BD00BF93
:102530007E790020044B05491A6811601868012251
:10254000042100F095BA00BFF80000207E67E54E38
:1025500001480EF0B9BB00BF305B0020034B1B7875
:1025600013B103480EF0B0BB704700BFBE7A002025
:10257000305B002038B54FF4004400252946204642
:102580000FF0D6FB04F0D4FD294620460FF0D0FB17
:10259000054804F0F3FE054905480EF023FB054B02
:1025A00001221A7038BD00BFFD270000652700001A
:1025B000305B0020BE7A002080B50C4A0C4B00AF87
:1025C00088B0002908BF13466A460A49C2E90513C4
:1025D0004FF400739383084B42F8103F07480023E1
:1025E0004FF4E65103F0D2FEBD4680BD8B6D010075
:1025F000866E0100506E010003000001A05E010024
:102600002DE9F04F83B000AF13F06FF94FF47A72F9
:10261000A0FB020302FB0131434C444BC00B40EAD8
:102620004140C90BC4E90001BFF35B8F53E8002FA1
:1026300042F0010143E800100028F7D1BFF35B8F9F
:1026400012F0010246D13A4C3A4E25783A49DFF869
:10265000ECC0DFF8ECE0DFF8EC904FF0FF08032D62
:1026600096F800A03ADD3848402200683B1D01EB97
:102670000A1106F093FE2278042A054619D9334838
:10268000334BE8468AB0111F052A18BF03466A4635
:102690003048D36140F2013313842F4BC2E9050166
:1026A00042F8103F2D4800234FF4135103F06EFE03
:1026B000C5463378227813440333DBB2812B28BF1D
:1026C000002333700023237025B1254A23480121BC
:1026D00012F014F90C37BD46BDE8F08FBCF800309D
:1026E000AA444FEA0A100EEBC30B01EB0A1A01F8D9
:1026F00000805EF83300CAF80200BBF804008AF8D4
:102700000130AAF80600013399F80000CAF8082041
:102710009BB2CAF80C20B3FBF0FA00FB1A33ACF8FA
:10272000003001359BE700BFA0140020285B00208B
:10273000C17A0020C07A0020C27A0020547900209B
:10274000000C0020BD7A00202C5B00203F8501009A
:1027500067740100616E010004000001A05E0100C9
:10276000756E010008B5124B1B78FBB1114B1B783D
:10277000E3B1114B1B781BB1BDE80840FFF740BF28
:1027800013F0B3F84FF47A72A0FB020302FB01319D
:102790000A4AC30BD2E9000243EA4143633B4FEAD2
:1027A000D13141F1FF3198428A41E5DB08BD00BFDC
:1027B000BE7A0020BD7A0020C17A0020A01400203B
:1027C000024A0348022112F099B800BF8D6E010041
:1027D000A05E0100084BBFF35B8F53E8002F22F08F
:1027E000010143E800100028F7D1BFF35B8FD30746
:1027F00001D4FFF7E5BF7047285B0020012810B522
:1028000002D0032804D010BD074B00221A70FAE74B
:10281000054C2378002BF6D1044B1868FFF7DAFF3C
:1028200001232370EFE700BFBF7A00202C5B00205C
:10283000B0B582B002AF2348234C0DF079FA206086
:1028400040B92248224A012112F058F86FF01200D4
:10285000BD46B0BD6D4688B002AA1E4BC2E9053028
:10286000032342F8103F194800234FF4C65103F0E8
:102870008DFD194B19492068AD460F2206F076FDF3
:10288000BFF35B8F164B53E8001F41F0010143E893
:102890000012002AF7D1BFF35B8F212200231148D9
:1028A000CDE900230FF0FCFE2068002112F0B4FAFD
:1028B00020B10D4A0548022112F020F8206812F0DC
:1028C000B0FAC5E7C16E01002C5B0020A05E0100DC
:1028D000C76E0100E16E0100B46001002D6F0100C0
:1028E000285B002078030020F46E01001F4AF0B539
:1028F000034600F11004164653F8045B42F8045BEB
:10290000A342F9D103781A4A1A4D14781A4F012BB1
:1029100018BFF1732B787678220100218B4210DDED
:1029200002F1100017F800C0B4451CD113480F493C
:10293000024401F1100051F8046B42F8046B81422B
:10294000F9D1642B0ED8094A0C49E01801EB0011AB
:1029500002F1100052F8044B41F8044B8242F9D1C5
:1029600001332B70F0BD01310246D7E7C28A002047
:10297000C07A0020C17A0020B37A0020C27A0020F9
:1029800073B504210D2000F08DF900F0DDFBA0F1FE
:1029900064046428E4B202D0642000F0E5FBFFF791
:1029A000F5FB012C19D0022C3CD02B4D01222946DD
:1029B000104600F0F9FB2B780BB9FFF7EFFC274E20
:1029C00000242B78A3423EDC4FF48072009224480E
:1029D000244A032111F0A5FF11E0234A20481F4D8E
:1029E0001D4E032111F08AFF224620461A4900F0AD
:1029F000DBFB00243378A3420BDCFFF7CFFCFFF7AF
:102A00008FFD0020FFF704FC0BF0F6F9002002B068
:102A100070BDE01C2946082280B200F0C5FB0134DD
:102A20000835E7E701230C4A0021184600F0ACFB0B
:102A30000E4A0B48032111F061FF0B4A084803219D
:102A400011F05CFFD9E7E01C3146082280B200F0AB
:102A5000ABFB01340836B4E7BD7A0020000C00203F
:102A6000C85E0100586F01003C6F01004E6F01000D
:102A70002DE9F041451800293ED0B0F1005F3BD36D
:102A8000C1F1005101F58021814235D31C4EDFF8A0
:102A900074C00127B04299BF4FF0020E4FF00051B1
:102AA00061464FF0100E95BF002308234FF4805469
:102AB0004FF40044411AB1FBF4F18E459FBFB1FBC6
:102AC000FEF84344DBB20EFB181110311B0107FA6C
:102AD00001F103F1804362B1C3F8041903F51063F7
:102AE000B0FBF4F004FB00408542D3D80020BDE8E1
:102AF000F081C3F80819F3E76FF01500F7E700BF9E
:102B0000FFFF002000000120F8B542F21075AA4234
:102B1000A8BF2A4621EAE17122EAE2724A43B2FBE7
:102B2000F5F40C220E4B50431E1819580D4864271B
:102B3000614391FBF5F17943FFF76EFA71680A483A
:102B4000614391FBF5F17943FFF766FAB1680748F5
:102B5000614391FBF5F17943BDE8F840FFF75CBABA
:102B6000CC6001001C6101000C610100FC600100EF
:102B700010B5034600681B7902690121994043683A
:102B80001B6819420AD10A490A484FF4CB6211F076
:102B9000B4F907484FF4CB6111F0A6F91368194254
:102BA0008368BDE810400CBF1B69DB68184700BF95
:102BB0001B6D01004C6D01002DE9F04103460068DA
:102BC000DD88197945F4003205F03004302CD0E965
:102BD000013706690AD11849184840F2D33211F07A
:102BE0008CF940F2D331144811F07EF905F0060457
:102BF000042C08D11049114840F2DA3211F07DF965
:102C000040F2DA31EFE71B6801248C401C4208D106
:102C100009490A4840F2ED3211F06FF940F2ED3106
:102C2000E1E73368ED074CBF2343A34333603B68C0
:102C3000BDE8F041184700BF1B6D01004C6D01005D
:102C400008B50748FFF7B8FF0648FFF7B5FF064885
:102C5000FFF7B2FF0548FFF7AFFF002008BD00BF38
:102C6000446101003C610100346101002C610100FC
:102C700008B5FFF7E5FF0748FFF77AFF0648FFF7BB
:102C800077FF0648FFF774FFBDE808400448FFF7E8
:102C90006FBF00BF446101003C610100346101006D
:102CA0002C610100012870B5204E04460D4623D842
:102CB0000FF08AF81E4B83421ED11E4B1B68F45442
:102CC0001A49002211F8013B012B03D10132052AD8
:102CD000F8D123461849087898420FD1012B23D800
:102CE000144B1A60154B00221A60FFF7C1FF104801
:102CF000BDE870400EF07CBB7455E1E70B700D49E8
:102D00000A600E4A0021012B1160EED90FF05CF829
:102D1000074C844207D020460EF06AFB2046BDE8EF
:102D200070400EF0F9BDFAE770BD00BF1D03002032
:102D3000A8140020445B0020D28A0020405B0020C1
:102D4000F8B59C4C9C4D9D4EFFF792FF2378023BBB
:102D50000F2B17D8DFE813F010001A0031004200E3
:102D6000520068008B009C00AD00B300C200E00080
:102D7000FB000E011901240142F2107211460020DD
:102D8000FFF7C2FE8E480EF033FBDDE78D4F3A6849
:102D9000013202F0010248BF524242F2107100209B
:102DA0003A604A43FFF7B0FE3B68012B14BF4FF473
:102DB0006170642010F0D1FDC6E7824B1A680132C1
:102DC00002F0010248BF524242F210711A60002024
:102DD0004A43FFF799FE4FF4FA70EBE7794B1A6814
:102DE000013202F0010248BF524242F210711A60F1
:102DF00000204A43FFF788FEC820DBE7714F3B689D
:102E0000013313F0010F42F210710CBF0A46002289
:102E100000203B60FFF778FE3B68072BECD10021D8
:102E20000120FFF73FFF8FE7664F3A68531C002AE7
:102E30003B6013DDC3F1CA01CA2B4FF0320342F2EB
:102E4000107203FB01F108BF00220020FFF75CFEB7
:102E50003B68CA2B07D100210846E2E7002242F274
:102E600010711046F2E7012B54D1FA20A2E7554F1A
:102E70003B68013313F0010F42F210710CBF0A4698
:102E8000002201203B60FFF73FFE3B68052BC5E7B2
:102E90004C4F3B68013313F0010F42F210710CBF2D
:102EA0000A46002201203B60FFF72EFE3B68092BFB
:102EB000B4E742F210724FF4FA61012060E7414B2F
:102EC0001A68013202F0010248BF52421A6042F20F
:102ED00010735A434FF4FA6103207AE7394B1868AC
:102EE0004FF47A72013090FBF2F102FB110018608E
:102EF000FEF7B4FB2946FEF743FA0FF04FFF3146C9
:102F0000FEF73EFAFEF774FC42F21071024603200F
:102F1000FFF7FAFD05204DE72A4F3B68013303F028
:102F200001031A4642F2107148BF5A42002B3A6020
:102F30004FF000000CBF0A460022FFF7E5FD3B689A
:102F4000002B42F2E45008BF4FF4967032E71D4B5D
:102F50001A680A21013292FBF1F001FB10221A607B
:102F6000032AD4BF02F00102002242F210714A4348
:102F700002202EE7134B1A680A21013292FBF1F06E
:102F800001FB10221A60052AEBE70E4B1A680A2192
:102F9000013292FBF1F001FB10221A60072AE0E7F0
:102FA000084B1A68013202F0010248BF52421A600F
:102FB000DBE700BFD28A00202EE34D3B00401C46D9
:102FC000A8140020405B002070B5164D2C68E10766
:102FD00004F0070607D50E200321FFF763FE41F238
:102FE000883010F0CAFCA20707D50F200321FFF795
:102FF00059FE41F2883010F0C0FC630707D510205D
:103000000321FFF74FFE41F2883010F0B6FC002E8E
:10301000DCD103210120FFF745FE642010F0ADFC58
:10302000D4E700BF485B002010B51A4C0346226865
:1030300039B302430828226009D850B1431E072B38
:1030400007D8DFE803F00E11061706060619102848
:1030500015D02368104A1148BDE81040032111F033
:1030600056BC0F4A012101E00E4A02210B4811F023
:1030700045FCEEE70C4AF5E70C4A0321F6E70C4A5B
:10308000FBE722EA000222600A4A0448032111F009
:103090003EFCDEE7485B0020EB6F0100005F0100B3
:1030A000806F01009B6F0100AC6F0100BA6F0100DF
:1030B000C86F0100D86F010030B51C4D2B7885B06A
:1030C000002B31D11A4C1B48A0624FF45A212160C9
:1030D00001AA11F0C2FF38B1174A1848012111F0B6
:1030E0000DFC012005B030BD029BA38120460423C6
:1030F000E38102F00BFB10F12D0F11D1104A0F48A4
:10310000022111F0FBFBA289E389A06A21685A43DE
:1031100011F0E0FD08B10B4ADFE7204602F0F6FAB5
:103120000028F8D101232B700020DBE7D38A002090
:103130004C5B0020C05B01000E700100085F0100C5
:10314000267001005170010007B501230DF107023F
:103150000221044811F031FB9DF8070003B05DF82F
:1031600004FB00BF4C5B002007B501238DF807006E
:103170000DF107020221034802F074FC03B05DF870
:1031800004FB00BF4C5B002070B5044615461E468C
:10319000FFF792FF33462A4621460248BDE87040B9
:1031A00002F060BC4C5B002070B50D46164604462C
:1031B000FFF782FF33462A4621460248BDE87040A9
:1031C00011F0FBBA4C5B002010B5094C0A44914247
:1031D00000D110BD11F8013B584003090001E35C28
:1031E000C0B2434018091B01205CDBB25840EEE737
:1031F0006570010070B589B30668304610F005FCB3
:10320000012201460446304610F0C7FBC30708D42C
:1032100013491448AF2210F070FEAF21104810F08F
:1032200063FE2146304610F0CEFB251829460022C9
:10323000304610F0B2FB2D1AAC4206D008490948BE
:10324000B72210F05AFEB721E8E72146304610F0C9
:10325000C0FB2146BDE8704010F0FCBC70BD00BF53
:10326000757001004C6D01002DE9F84306681446A5
:10327000B2680F464B1EB2F5004F34BF042108213F
:103280003B4010D0C7F1000909EA0709494503F19D
:10329000FF3028BF494618420CD11F46BCB9002553
:1032A0002846BDE8F8838F420FD82146BDE8F84391
:1032B00010F012BD2C492D484FF4A27210F01DFEE3
:1032C00029484FF4A27110F00FFE9946E6E7B2EBE1
:1032D000D40FE4D9E319591A104610F0A0FB0146A7
:1032E000304610F0F6FB80460028D8D0B368B3F51E
:1032F000004F34BF0423082309EBC0051D443544A7
:103300007B1E1D44B5FBF7F57D43A5EB090529465A
:10331000304610F07AFB2C44073424F00704A41B39
:10332000804507464FEAE40408D20246414630464B
:1033300010F009FC4146304610F04AFC3946304650
:1033400010F041FB3844844208D2394630462246C8
:1033500010F0F9FB2146304610F03AFC01223946C4
:10336000304610F036FB9BE7757001004C6D010094
:10337000B2F5802F2DE9F0410CD2042A20D83D4926
:103380003D484FF4F97210F0B8FD4FF4F971394827
:1033900010F0AAFD0823D21ACC1D114424F0070412
:1033A00021F00701091B17294FEAD1060AD8314934
:1033B000314840F2FB1210F0A0FD40F2FB11E6E7AD
:1033C0000423E8E7002704603146A660E760304642
:1033D00010F02EFB0121421D8046304610F01FFBED
:1033E0009200D51DED082844B0423AD8B8F1FF3F0D
:1033F000A2F110023946B8BF3A4604F1100012F0AB
:1034000010FB2A463946204610F0FBFA3B463A4666
:103410003946204610F0CCFAA6EB0508204639467E
:10342000012210F0D6FA4246294610F0EAFA2B465D
:103430003A462946204610F0BBFA3146204610F0A5
:10344000E0FA43463A463146204610F0B1FA31469A
:103450002046012210F0BDFA2946BDE8F04110F0E7
:10346000B7BB044904484FF4037210F046FD4FF413
:1034700003718CE7757001004C6D01002DE9F04F70
:1034800091B08407009302F004030293C2F3C203D5
:1034900003F10103DDF86890039205460E4605939B
:1034A00040F0E081041D30B1072909D86FF01B00FE
:1034B00011B0BDE8F08F01F00706341DC6F1080613
:1034C000009B4FF00008591E4FF0040A4FF0FF33E5
:1034D0000193CDF810804746C34653460DB1009A7C
:1034E00022600598002800F3D7809548009A824210
:1034F00003D394488242C0F0CF80039AA4EB050E18
:1035000092074FEA9E0040F1DE804FF0000CCCE0C5
:103510007A285DD84B280ED8472859D829282DD885
:10352000252852D054D820287AD02338D0F1000B47
:103530004BEB000B74E04C382E2849D8DFE800F044
:103540007048484848484848484848484B484848D0
:10355000484848484859484B4B595959704B6D4851
:103560007048184B18484883804B48484B488000A7
:1035700000204FF0000B4FF0040A38E02A38C0B2A8
:10358000012202FA00F010EA0E0F49D110F0625C3D
:103590002FD110EA020B43D06046013C5444B4FBE7
:1035A000FAF40AFB04F4002D60D0A3EB050CA4444C
:1035B000B4453FF67BAF002867D1042B48D159F8BA
:1035C000043B2360043404232AE0019A013A019267
:1035D0004FF0000B24E011F8010C6C2835D111F8E4
:1035E000023C00206C2B8346C5D14FF0080A53469D
:1035F000D3E709F1070929F007090734F9E802AB15
:1036000024F0070435B106982044B0423FF64EAF8F
:10361000C4E900AB08344FF0000B4FF0080A5346E2
:1036200011F8010F002800F0A980BBF1000F7FF412
:103630006FAF2528F4D1019B013301934FF0010BAB
:103640004FF0040AEBE7584693E700208346A4E7CF
:10365000082B40F08A8009F1070929F00709F9E8E9
:103660000223C4E9002308340823D9E768B9042BEE
:1036700002D109F10409A5E7082B76D109F1070960
:1036800029F0070909F10809EDE7059A013A0592C1
:1036900059F8042B009221E7039A900744D5A4EB34
:1036A000050E4FEA9E004FF0010CBEF5007F1BD3C4
:1036B000254926484FF41F7210F01FFC4FF41F716C
:1036C000214810F011FC0F2F10D8002D40D007F129
:1036D00040020DEB020C019A0CF8200C0CF8102C97
:1036E0000498013004901EE00F2F08D9164917489E
:1036F00040F2812210F001FC40F28121E0E7D5B1D7
:1037000007F140020DEB020EC0B2019A0EF8200C38
:103710000EF8102CBCF1000FE2D060F07F000EF824
:10372000200C08F101080137C5F1080204340692A3
:103730004FF6DA7E74E7BCF1000F09D00136F2E7EC
:10374000805A0100208D0100987001004C6D01002D
:10375000029802360028E6D10098CDE90631FEF73E
:10376000E1F8DDE906310644DDE74049404840F232
:10377000C62210F0C2FB40F2C621A1E7631BB3F5DD
:10378000806F08D339493A4840F2D22210F0B5FB95
:1037900040F2D22194E71DB9A6F10804E01887E6AB
:1037A000029A28609B082B709DF81030C2B1EB7014
:1037B00085F80280B8F1000F05D008A80022C5F1F5
:1037C000010C97420ED1C5F101030DF120094FF014
:1037D000000A01930DF1300B574512D1601B67E6CB
:1037E0006B70E5E710F8013B190608D504EB0C0EE9
:1037F000B64503F07F033FF659AE04F8013B0132B2
:10380000DFE7B8F1000F03D099F90020002A17DB99
:10381000029BD3B11AF80B2004F8012B0022019B64
:1038200098182044B0423FF641AE99F8000004F8E1
:10383000010B00990392204612F0E5F8039A144414
:103840000AF1010A09F10109C6E799F8002055F8C3
:1038500022300093029B45F822300098FEF762F870
:10386000421CDCE76FF00D0022E600BF98700100FB
:103870004C6D01002DE9F04F97B000AF8946D7F8A5
:1038800080B0FA623B62044650B9A849A8484FF498
:10389000667210F032FB4FF46671A44810F024FBFE
:1038A000CBF3C00390F802A0BB6141B94578007822
:1038B0000AEB800020444D4517D8A0EB0409E378BB
:1038C000FB61BAF1000F02D01BF0010F16D1FB69AA
:1038D00053BBFB6A1BB13A6A4946204698474D469E
:1038E00028465C37BD46BDE8F08F461C3046FEF7E3
:1038F00019F80130304409F10109DCE723786268E6
:103900007A62FA6A9900796104EB8301002A40F037
:1039100001814D460E4601EB0A094FF000084E4565
:103920004CD101EB0A0610E01BF0020FD1D0237836
:103930009A007A6162687A62FA6A04EB8301002A6B
:1039400077D14D4601EB0A0690461BF0050F0CBFE0
:1039500002230123FB62FB6906EB430A0BF002031F
:10396000BB625645BCD016F8021B16F8013C54F851
:103970002390704B994502D36F4B994536D3BB6961
:10398000002B40D0786A10F00AFA00283BD0E946B4
:103990008AB06A46694B53617B6AC2E906314FF4CB
:1039A00000731384664B42F8103F664800234FF4BF
:1039B000125102F0EBFC023DCD46D2E716F8013B76
:1039C000F96254F82300FDF7ADFFD7F88430F96AA7
:1039D00001304BB1D7F8883098453EBFD7F88430D6
:1039E00023F8180008F10108054498E7BB6923B1E2
:1039F000786A10F0D4F90028C9D11BF0010F05D165
:103A0000FB6AED1AADE7BB6A002BAAD04846FDF76A
:103A100089FFD7F8843053B1D7F8883098453FBF35
:103A2000D7F88420431C22F8183008F10108054417
:103A300097E7BAF1000F73D01BF0040673D0D0469D
:103A4000002607F1480052463B61B96211F0DBFFE6
:103A5000B96A3B6901EB0A02BA62FA69F969520074
:103A6000FA60BA6A02EB41023A610BF00202BA60F4
:103A7000BA6A39698A4267D162787A621BF0020FAA
:103A800032440CBF4FEA580100211BF0010FD2B2A3
:103A900040F0DF801BF0040F14BF40460020BB61E4
:103AA0006270A070E1703A6A7969FB6A20469847B3
:103AB000051EFFF615AFBB6923707B6A6370FB6957
:103AC000E37041463A6AFB6A84F802A007F14800B5
:103AD0009847B0F10008C0F2EA807B693A6AA9EB26
:103AE0000A01C91AFB68C91AD7E90A0398470028CE
:103AF000C0F2DF80A84408EB00054FF0000B07F18F
:103B0000380AB345C0F0A78000213A6AFB6A08462C
:103B10009847E5E656464FF0000807F1380092E76F
:103B20005646D04696E7B04694E700BF987001002D
:103B30004C6D0100805A0100208D0100C67001000B
:103B400004000001585E0100BA6A12F8021BBA6252
:103B500012F8015C584A54F82500904202D3574AA3
:103B6000904217D3BA693AB1786A7B6010F017F9BE
:103B70007B6800287FF47CAFBA68002A49D00F2EFA
:103B80003DD94F494F4840F24C4210F0B6F940F24F
:103B90004C4182E6BA693AB1786A7B6010F0FFF86E
:103BA0007B6800287FF464AF1BF0010F0AD00F2E52
:103BB00025D94349434840F2424210F09EF940F271
:103BC00042416AE61BF0040F3FF452AFB8F10F0F09
:103BD00008D93B493B4840F2454210F08EF940F28B
:103BE00045415AE608F1280207F1300008F10101C9
:103BF00002EB000808F8105C5FFA81F838E706F17C
:103C0000280207F13000711C161806F8205CCEB2AD
:103C10002EE7B8F10F0F08D929492A4840F24F4240
:103C200010F06BF940F24F4137E608F1280207F136
:103C3000300C08F10100944407F1580252FA80F068
:103C400008F102080CF8101C5FFA88F800F8105C04
:103C50000EE7002023E71BF80A3087F8373054F8C6
:103C60002390D7F88430FBB133F81B803A6AFB6AA3
:103C7000012107F13700984700281ADB0544B8F105
:103C8000000F06D14846FDF74DFE00F101081FFA6E
:103C900088F83A6AFB6A414648469847002808DB9C
:103CA00005440BF1010B2CE7D7F88480DEE745468D
:103CB00016E6054614E600BF805A0100208D01007B
:103CC000987001004C6D0100014B1860704700BFF7
:103CD000FC00002030B587B00025CDE90301044683
:103CE000009503A90548059500F06EF8DDE904305C
:103CF0009842B8BF255407B030BD00BFED3D01006C
:103D0000F0B5094E016802460A2700200B46013132
:103D10001C78355D6D0701D41360F0BD07FB0043CF
:103D2000A3F13000F2E700BF1E8C01002DE9F84F2F
:103D300015469A46D378234A12F803B06F2B814672
:103D40000F460BF0030B2BD026D8582B0CBF102698
:103D50000A26DDF828803246002348463946FDF71A
:103D6000BDFD092A08F1FF38D4B21ED83034B14560
:103D7000E4B277F1000788F8004001D3D04511D8AC
:103D80002B789B0605D5082E15D1AB7843F0080398
:103D9000AB704046BDE8F88F03F0F703702BD5E712
:103DA0000826D6E781460F46D5E7BBF1010F0CBFC9
:103DB00037345734DBE7102EEBD1AB7843F01003E8
:103DC000E6E700BF1E8C01002DE9F04F9FB0824650
:103DD000039117461C460025387810B9284600F094
:103DE000A0BD252809D00399D0470028C0F29985A5
:103DF0007B1C01350593059FEEE71822002110A8D2
:103E000011F00FFE7B78252B00F0BA800023791C7F
:103E100098469E469C4618460E4611F8012B2B2AC2
:103E200000F0E18000F2D880202A00F0DF80232A11
:103E300000F0DF802BB19DF8483043F040038DF84F
:103E40004830B8F1000F05D09DF8483043F020030A
:103E50008DF84830BEF1000F05D09DF8483043F092
:103E600010038DF84830BCF1000F05D09DF84830A4
:103E700043F008038DF8483028B19DF8483043F0EE
:103E800004038DF848309DF8483003F0440144297C
:103E900003D16FF386138DF848309DF848300E96A5
:103EA00043F080032A2A8DF8483040F0A7809DF81F
:103EB000493043F001038DF84930731C1A782E2ADB
:103EC0009DF849200CBF0121002161F341028DF8CA
:103ED00049200CD15A1C0E925A782A2A40F09E8012
:103EE0009DF8492042F004028DF8492002331A78E7
:103EF0006C2A00F0BF8000F2A180682A00F0A78041
:103F00006A2A00F0C0804C2A00F0C58013F8012B0B
:103F10000593782A8DF84B2000F205816D2A00F276
:103F2000C780692A00F2FF80572A00F2DE80412A0A
:103F300004D0A2F14503022B00F2F5809DF84A302F
:103F400002F0DF020421A2F1410661F30203724292
:103F50009DF849108DF84A30724162F3C7110A0684
:103F60008DF84910CBB200F11D8103F07802182AB8
:103F700040F007816FF3C6038DF849300023F6E067
:103F80008DF84B30BB1C05939DF849209DF84A30B5
:103F9000D10703F0070040F1078154F8041B049196
:103FA000002908DA9DF8481041F004018DF8481006
:103FB000049949420491560740F1FE8054F8046B7D
:103FC000002E80F2FD809DF849206FF341028DF8AC
:103FD00049204FF0FF36F3E02D2A0DD0302A7FF430
:103FE00029AF012318E74FF0010C15E74FF0010E40
:103FF00012E74FF001080FE701200DE70EA8FFF7C9
:104000007FFE0E9BB3423FF459AF9DF848201390BA
:10401000C00F60F341028DF848204FE70EA8FFF76C
:104020006FFE9DF848301490C3F3400242EAD0720C
:1040300062F341038DF848300E9B58E7742A26D06E
:104040007A2A7FF463AF9DF8492006210CE05A7864
:10405000682A9DF8492006D1012161F3C6028DF836
:104060004920023352E7022161F3C6028DF849204C
:1040700001334BE75A786C2A9DF8492001D104217D
:10408000EBE70321F0E79DF849200521ECE79DF8D7
:1040900049200721E8E7BDF8482022F4F04222F049
:1040A000020242F4804242F00202ADF84820DFE70B
:1040B0006E3AD3B201229A4040F282431A429DF8EE
:1040C000493037D112F0240F5FD1D1072BD59DF89D
:1040D0004A2003F07803A3F14000032161F30202B8
:1040E00043428DF84A20434141E0A2F15801C9B250
:1040F000012000FA01F111F4624F7FF41FAF40F686
:10410000010319429DF849301AD111F4043F0AD035
:104110009DF84A2060F3020203F07803402B8DF8EB
:104120004A207FF42BAF9DF8483043F001038DF80F
:10413000483023E79DF84A20022161F30202EBE7B1
:104140009DF84A10022003F0780360F30201402B2F
:104150008DF84A1002BF9DF8481041F001018DF81A
:104160004810632A7FF40AAF003B18BF01239DF873
:104170004820C2F340010B4363F341028DF848200D
:1041800002E713F0380FCED1F8E69DF84A2003215C
:1041900013F0780F61F302028DF84A2014BF012357
:1041A0000023E4E70123E2E79DF948100029B4BFAA
:1041B00013994FF0FF31FDE691077FF50AAF149E8A
:1041C0009DF8491000220428CDE9132207D18A075F
:1041D00005D49DF94920002AACBF06260D2603F020
:1041E0000703012BC1F3C30132D1CB1E042B04D82A
:1041F000DFE803F0204545202000236801294FEA2D
:10420000E372CDE910321BD19DF94030DA17CDE9C8
:10421000103204349DF8483006939B074FD0059B1D
:1042200003993A4650460FF048FE0028C0F27983C1
:104230000544E0E554F8043BDA17CDE91032E9E72C
:104240000229E6D11AB243F3C033CDE91023E0E7E7
:10425000022B24D1CB1E042B04D8DFE803F0181066
:1042600010181800012954F8043B4FF0000214D034
:104270000229CDE91032CDD19BB21093CAE70734A1
:1042800024F00704F4E80223CDE91023C2E754F830
:10429000043B109300231193BCE7DBB2CDE7042B62
:1042A00008D1073424F00704D4E900230834CDE909
:1042B0001023AFE7032BADD154F8043BDDE79DF8A5
:1042C0004B80B8F1780F3FF696ADB8F1570F5CD838
:1042D000B8F1250F00F0A480B8F1240F7FF68BAD64
:1042E000B8F1410F04D0A8F14503022B3FF683AD8E
:1042F000DDE91023002BC0F24D810699080700F17B
:104300004C81C1F300194FEA4919C3F30A51C3F3B1
:104310001303002940F0448152EA030014BF4FF018
:10432000010C4FF0000CD80240EA5250D702CDE900
:104330000C70B8F1460F47EA010740EAE17008BF88
:104340004FF06608384300F0B881BCF1000F10D080
:104350001B0343EA125317033A4618464FF0000C6A
:10436000002880F25681BCF1000F40F05981CDE960
:104370000C730D9B43F00043A1F2FE3B0D93002113
:10438000DDE90C230F46052060E1A8F15803202B3E
:104390003FF631AD01A252F823F000BF674500009F
:1043A000F73D0000F73D0000F73D0000F73D00003D
:1043B000F73D0000F73D0000F73D0000F73D00002D
:1043C000F1420000F73D00001345000027450000C2
:1043D000F1420000F1420000F1420000F73D000010
:1043E00027450000F73D0000F73D0000F73D0000C5
:1043F000F73D00006D45000067450000B744000030
:10440000F73D0000F73D000031440000F73D00009B
:1044100067450000F73D0000F73D000067450000DC
:1044200003994046D0470028C0F27B820135E2E480
:10443000002E109F3BDB3146384611F00DFB002F5C
:104440003FF4D9AC3E18F31B4FF000099DF84A2009
:1044500012F01001069100F05982023312F040026E
:10446000DDF84C80089218BF149ACDF81C804344A4
:1044700018BF9B18049A002A40F36382D31A9DF850
:10448000482004935007C2F3800B00F15A82510672
:1044900040F14A82B9F1000F07D003994846D0474E
:1044A0000028C0F23E820135D94630223DE238462E
:1044B000FDF738FAC6E71098002800F022820DF1C7
:1044C0007503009312AA17AB0021FFF72FFCBDF86C
:1044D0004A3003F0EF0343F4F04343F01003074680
:1044E000ADF84A304FF00009002E0CDB9DF8482053
:1044F0000DF17503DB1B6FF386129E428DF8482089
:1045000001D9F31A1393002F3FF475AC0DF1750622
:104510006DE0109B8DF85C304FF000090DF15D06E9
:1045200017AF012392E7069B1F0758BFC3F300197B
:10453000DDE9102354BF4FEA49194FF02B09002B36
:1045400006DA524263EB4303CDE910234FF02D0905
:104550000DF175030093DDE9100117AB12AAFFF707
:10456000E5FB0746C0E74FF00009F1E7109B07297C
:104570003FF641ACDFE801F00C04060C08080C0C17
:104580001D7038E41D8036E4EA17C3E9005232E4B6
:104590001D6030E44FF02D09B7E64FF02B09B4E66B
:1045A00040F2FF70814231D108F10108A1495FFA60
:1045B00088F8134311F8081001F003011ED10129F6
:1045C0000BBF492369234E216E210CBF4622662270
:1045D0008DF85C309DF848308DF85D106FF38613D0
:1045E0008DF85E208DF848300DF15F0617AFF31B94
:1045F000B9F1000F3FF42AAF013327E7012915BFB6
:104600006E234E23612141211A46E1E74FF0000C51
:1046100089E6921801F1FF3140414FF0010C9FE60D
:10462000CDE90C20A5E6520842EAC3725B08B3F15B
:10463000333F59460BF1010BF5D200FB03FCA2FB03
:10464000002301F1020B6344013F01211BF1020F22
:10465000E9DB09B1CDE90C23BBF1000FDDE90C3238
:104660002EDCCBF10401A1F120000BF11C0B02FAAE
:104670000BFB22FA00F0CA40CB40079208F0DF02A1
:1046800043EA0B03472A43EA00037ED1F91C01DB0E
:10469000BE422BDAA8F10208002E5FFA88F87DDD11
:1046A0009DF84820920606F1FF3677D4B6F1000B4C
:1046B00018BF4FF0010B721C27E04FF0000B5EE6B5
:1046C000023342F100020CA8CDE90C320FF0C6FB18
:1046D000DDE90C320BF1FF3B0137DB185241002AB8
:1046E0000BF1FF3BF9DACDE90C32B5E79DF8482034
:1046F0009006A6EB07064ED4B6F1000B18BF4FF09C
:10470000010BF2194FF066084BD4102AA8BF1022F3
:1047100010200B904FF000610020CDE90E01DDE983
:104720000E01002A3FD1079A1B1842EB0101B1F19B
:10473000805F47D2CDE90C31069BB8F1660F03F0DC
:10474000200240F0BE80002F47DC30238DF85C3023
:10475000002A71D1002E40F3B7812E238DF85D30F1
:1047600087B17B42B342A8BF33469DF84A201393DA
:10477000002BA6EB0306D4BF0023012363F34512ED
:104780008DF84A200DF15E0340E0B8F1660F4FF05E
:10479000000BB6D08FE74FF0000BB2E74FF0000BE5
:1047A00089E70022B4E7400840EAC1704908CDE932
:1047B0000E010EA8CDE908230FF050FB089A099BC3
:1047C000013AACE75B0843EAC1730CA84908CDE99C
:1047D0000C3101370FF042FBAEE717AB0B99002904
:1047E0000BDD0BA90CA8CDE906320FF04FFB069BA1
:1047F000079A03F8010B013FF0D11397AAB9002ED5
:1048000040F360812E2103F8011B0027002E1CDDE0
:104810000B9A002A19DD0BA90CA806930FF036FBA2
:10482000069B013E03F8010BF0E72E2203F8012B53
:10483000EBE700BF1D8C01002E238DF85D30002FAB
:10484000A0D0002E8DDC0DF15E03BBF1000F4CD12A
:1048500014961E4608F0DF03452B21D1002FBABF66
:104860007F422D232B23632FC8BF64227370C2BFE6
:10487000B7FBF2F303F1300102FB13774FF00A02AA
:1048800086F80080CABFB17002360336B7FBF2F378
:1048900003F1300102FB1373303331707370023651
:1048A000139B002B2BDC149B002BD4BF0023012374
:1048B0009DF84A2063F3861200238DF84A20337056
:1048C00094E60BA90CA806920FF0E0FA069A8DF870
:1048D0005C00302818BF07F1FF3712B9002E40F3F3
:1048E000F3802E238DF85D304CE71E46013B16F811
:1048F000012C302AF9D02E2A08BF1E46AAE7012330
:10490000D6E7734E8146771F05239FE5110748BF01
:104910000133A3E5104609920399D0470028099A6C
:1049200005DA1FB0BDE8F08F2022DDF810B059463F
:1049300000290BF1FF3BEDDC049BCDF810B02B44BC
:104940005D1AB9F1000F05D003994846D0470028F9
:10495000E7DB0135089B002B79D09DF94930002B0E
:1049600029DBDFF870913B46187819F800205207D0
:104970009B4603F101033FD49DF84A30EF1B980694
:104980005F4407D44246002A08F1FF383BDC079B0E
:104990003B449F1A9BF800002E280AD10399D04768
:1049A0000028BEDBB8F1000F07F1010731DC0BF185
:1049B000010B5D4638E0B94699F800007028C846FA
:1049C00009F1010913D1EF1B149D47443D44EB1B32
:1049D000002B34DC03993346424650460FF06DFA03
:1049E00000289EDB3844049E0546064465E0039992
:1049F000D0470028E0DA94E706930399D0470028CF
:104A0000069BB1DA8DE703993020D0470028B9DA48
:104A100087E703993020D04708F1FF38C0E70399B2
:104A2000D0470028FFF67DAF287819F800305907E5
:104A3000A84605F10105F2D4A7EB0B07C4E70399DB
:104A40003020D0470028FFF66CAF0137BFE79DF854
:104A50004A30DA0601D41B0706D503993020D04727
:104A60000028FFF65EAF0135069B3BB103999DF828
:104A70004B00D0470028FFF654AF0135A84406E0AC
:104A800003993020D0470028FFF64BAF0135A8EB43
:104A90000503002BF4DC039933463A4650460FF0E9
:104AA0000CFA0028FFF63DAF28449CE7039920202C
:104AB000D0470028FFF635AF0135731B002BF5DC1E
:104AC000FFF799B91746C0E60DF15D03BDE600BFDB
:104AD0007F7101001E8C010038B50D46044620226E
:104AE000002110F09EFFEB68E361AB68A3612B68C7
:104AF00023626B6863620022A2622A6923B1591E95
:104B0000194208BF42F0010222610122002104F192
:104B10002C0010F05CFE40B1044905482F220FF034
:104B2000ECF902482F210FF0DFF938BD8071010048
:104B30004C6D01002DE9F04F89B0CDE90123436AA6
:104B400000268B420446884605960796B24652D305
:104B500000F114074FF0400BEFF3118300938BF338
:104B60001288BFF36F8F3846DDF800900DF0A6FA7B
:104B700040B94649464888220FF0BFF9882143488A
:104B80000FF0B2F938460DF0BDFA079A2AB1314656
:104B900020460FF091FA0023079306A920460FF054
:104BA000B9F90699414505462ED32268236A13F8C0
:104BB000221021F0030103F8221003EB820A21687E
:104BC000424620460FF0CAF9E3682060984216D0AA
:104BD000002538460DF080FA40B389F31188BFF301
:104BE0006F8F059929B1A2690AB120469047002329
:104BF0000593002DB0D1504609B0BDE8F08F236970
:104C000043F008032361E3E718B120460FF0C0F931
:104C1000DFE7DDE9013213432FD0039110F005FEE9
:104C2000039950BB38460DF057FA40B91749184858
:104C300040F231120FF061F940F231119FE7009B11
:104C400083F31188BFF36F8FDDE9012304F12C009A
:104C50000BF0E0FD0546EFF311898BF31288BFF3EB
:104C60006F8F38460DF02AFA002882D03846B5FA00
:104C700085F50DF047FA6D09ABE707AB05AA2046AD
:104C800026680FF0A2F90546A3E700BFA671010050
:104C90004C6D01002DE9F0410446C36908460D46FC
:104CA000984704F114060746EFF31188402383F375
:104CB0001288BFF36F8F30460DF000FA40B91649E5
:104CC000164888220FF019F9882113480FF00CF9C3
:104CD00030460DF017FA2B7843F001032B70616812
:104CE0003A4620460FF03AF9606020460FF0FFF98F
:104CF00030460DF0F1F940B90749084840F2311249
:104D00000FF0FBF840F23111DFE788F31188BFF3B1
:104D10006F8FBDE8F08100BFA67101004C6D0100EE
:104D20002DE9F843044600F11407EFF311884023FE
:104D300083F31288BFF36F8F38460DF0BFF9054635
:104D400040B93049304888220FF0D7F888212D48E3
:104D50000FF0CAF838460DF0D5F92369A26813F0B0
:104D6000080F02D163689A4200D9636A9B1A002B2C
:104D70003AD0216A11F8223013F0030001EB8209C6
:104D800035D0022803D151F82260B60805D1D807E2
:104D90001AD4E369484698470646A1683246204639
:104DA0000FF0DCF83146A06020460FF0E5F83846F9
:104DB0000DF092F9E8B91349134840F231120FF09F
:104DC0009CF840F23111C2E743F0020301F82230AF
:104DD0004846E369A56898472946024620460FF0F1
:104DE000BDF80025A060E2E71D46A946DFE70546BD
:104DF000FBE788F31188BFF36F8F002D95D14846EC
:104E0000BDE8F883A67101004C6D01002DE9F04169
:104E10000446C36908460D46984704F11407064640
:104E2000EFF31188402383F31288BFF36F8F384666
:104E30000DF044F940B92349234888220FF05DF86A
:104E4000882120480FF050F838460DF05BF92B7898
:104E50006FF300032B7023699B0705D5E268236A73
:104E600003EB82039D421DD12B786FF341032B701E
:104E7000D4E90231994204D1324620460FF06EF84F
:104E8000A060314620460FF077F838460DF024F93F
:104E900068B90C490C4840F231120FF02EF840F27C
:104EA0003111CEE72B6866F39F032B60EDE788F3A3
:104EB0001188BFF36F8F04F12C00BDE8F0410BF0B7
:104EC00063BC00BFA67101004C6D010070B50446C3
:104ED00000F11405EFF31186402383F31288BFF32A
:104EE0006F8F28460DF0EAF840B916491648882217
:104EF0000FF003F8882113480EF0F6FF28460DF056
:104F000001F92369A06813F0080F02D16368984281
:104F10000ED9646A241A28460DF0DEF850B9094902
:104F2000094840F231120EF0E8FF40F23111E2E799
:104F30001C1AF0E786F31188BFF36F8F201E18BF8D
:104F4000012070BDA67101004C6D010008B504463A
:104F5000EFF31183402383F31288BFF36F8F07F0C1
:104F60004DFE204603F06EFC02480EF053FF0FF09A
:104F7000E3FEFCE7D37101002DE9F84F0446084633
:104F8000A38B1907164612D4022803F0070162D139
:104F900020460FF0D4F888B10138042800F22581AA
:104FA000DFE810F0590023017E00C800F500012859
:104FB0000CBF43F0100143F02001A18304F1140061
:104FC0000DF08AF8002800F0AB8086F31188BFF35B
:104FD0006F8FBDE8F88F03F00702501F01281ED81D
:104FE0000020062A2768C4E9000014D13A4603E0ED
:104FF000E08B0130E0831268002AF9D123F0070327
:1050000043F00202A28320460FF099F890B342F0D9
:105010002002A2832EE023F007039AB2F2E7042ACB
:1050200033D123F007039AB2A28320460FF087F80A
:1050300010B142F02002A283A38B03F00709894537
:1050400040F0DC80A18BCA0640F1218121F01003E1
:10505000A38301F00701D4F81880A38BB8F1000FE7
:10506000B9DA0022276823F00703C4E9002243F0DD
:105070000103A383A38B03F00709894540F0BF8098
:10508000002FDFD00025AA4640E08549854840F240
:105090001B120EF032FF40F21B1181480EF024FF6C
:1050A00041B17F497F484FF4AB720EF026FF4FF4B9
:1050B000AB71F2E7236843B979497A4840F2571255
:1050C0000EF01BFF40F25711E7E723691D6845B951
:1050D000734974484FF4AD720EF00FFF4FF4AD7189
:1050E000DBE7A38B23F0070343F006039BB2A38304
:1050F0000F4688464FF00609A268002A40F08180DA
:10510000002F40F08180002D9CD0BA4643F0080368
:1051100004F1140BA38358460CF0DEFF002875D170
:105120006149604840F231120EF0E7FE40F2311161
:105130005D48B3E7022908D059495A4840F25D1248
:105140000EF0DBFE40F25D11A7E7E78B47B1544953
:1051500054484FF4AF720EF0D0FE4FF4AF719CE79D
:1051600023695D6845B94E494E4840F261120EF020
:10517000C4FE40F2611190E7A38B23F0070343F0D4
:1051800004039BB2A383B8464FF00409B4E7012996
:1051900008D0434943484FF4B2720EF0AEFE4FF4CC
:1051A000B2717AE7236843B93D493E4840F265123F
:1051B0000EF0A3FE40F265116FE723699D6845B9C3
:1051C000374938484FF4B4720EF097FE4FF4B4717B
:1051D00063E7A38B23F0070343F005039BB200278B
:1051E000A383B8464FF0050986E72D492D4840F2C4
:1051F0006B120EF082FE40F26B114EE70027002585
:105200007AE74FF0010A81E792467FE786F311883B
:10521000BFF36F8FBAF1000F16D147BB15B1234909
:105220002046A847EFF31186402383F31288BFF38B
:105230006F8F58460CF042FF08BB1B491948882263
:105240000EF05BFE882173E7A1680029E5D00E68A7
:105250000029E2D0D1F804A043464A462046D04770
:105260001EB1336831461E46F2E73346FAE7394647
:1052700043464A4620463F680EF08DFFCDE758462C
:105280000CF040FFA38B23F00803A383DAE68B0620
:105290007FF594AE21F02003A38301F0070177E6A8
:1052A000FC7101004C6D0100A6710100B1520000BB
:1052B000F8B504460D4600F11406EFF311874023BC
:1052C00083F31288BFF36F8F30460CF0F7FE40B9BE
:1052D00009490A4888220EF010FE074888210EF07E
:1052E00003FE30460CF00EFFA5613A462046012130
:1052F000BDE8F840FFF740BEA67101004C6D01000B
:105300002DE9F04704460F460EF035FF051E5DDB24
:1053100004F11409EFF3118A402383F31288BFF3D9
:105320006F8F48460CF0CAFE804638B9334934487E
:1053300088220EF0E2FD882130483CE048460CF01F
:10534000E1FEE38BA68B4FF6FF72934206F0070651
:105350003FD0022E10D10133E383354648460CF08E
:10536000BBFE00283BD12549254840F231120EF002
:10537000C4FD40F23111DFE7062E13D8DFE806F056
:10538000092C1212090409006FF085054FF000087E
:10539000E4E700233B6063687BB9C4E900777EB132
:1053A0003546F3E7174916484FF4E4720EF0A5FDB1
:1053B00014484FF4E4710EF097FD1F606760EEE74C
:1053C000524602212046FFF7D7FD35462846BDE864
:1053D000F0876FF00A05D9E76FF00405D6E78AF386
:1053E0001188BFF36F8FB8F1000FEFD00023324662
:1053F000394620460EF0CFFEE8E700BFA671010057
:105400004C6D0100FC710100F8B5054600F1140671
:10541000EFF31187402383F31288BFF36F8F304679
:105420000CF04CFE38B92049204888220EF065FD6A
:1054300088211D4825E030460CF064FEAC8B04F05A
:105440000704022C12D0012C0CBF6FF004046FF083
:10545000850430460CF040FE08BB1349134840F267
:1054600031120EF04AFD40F23111E2E7EB8B53B9F5
:105470000F490E4840F2EF120EF03FFD0C4840F28B
:10548000EF110EF031FD013B9BB2EB83002BE0D11D
:105490003A4621462846FFF76FFD2046F8BD87F3C0
:1054A0001188BFF36F8FF8E7A67101004C6D010002
:1054B000FC7101002DE9F0410E460546002845D05B
:1054C000002943D000F11407EFF31188402383F340
:1054D0001288BFF36F8F38460CF0F0FD38B91D49C4
:1054E0001D4888220EF009FD88211A4816E038462A
:1054F0000CF008FE31462846AC8B0EF005FE78B164
:1055000004F00704231F022B0CD91449124840F25F
:105510002D220EF0F2FC114840F22D210EF0E4FC99
:105520006FF0770438460CF0D7FD40B909490A48B6
:1055300040F231120EF0E1FC40F23111D5E788F370
:105540001188BFF36F8F2046BDE8F0816FF015041E
:10555000F9E700BFA67101004C6D0100FC7101006C
:1055600008B54268816002F00302032A034602D0B4
:105570002AB1002000E0006800225A6008BD0449FA
:10558000044845220EF0B9FC014845210EF0ACFC60
:10559000217201004C6D01002DE9F34180460E4659
:1055A000154600272A4601A940460EF02EFE314638
:1055B00004460246019810F026FA2D1B2744264483
:1055C00001D0002CEED1394640460EF03DFE40B1F0
:1055D0000649074849220EF090FC044849210EF084
:1055E00083FC384602B0BDE8F08100BF477201007D
:1055F0004C6D01002DE9F34180460D46164600270B
:10560000324601A940460EF034FE04462DB1024652
:105610000199284610F0F7F92544361B274401D09C
:10562000002CEDD1394640460EF043FE40B106490C
:1056300006488E220EF061FC03488E210EF054FCC9
:10564000384602B0BDE8F081477201004C6D0100A0
:105650002DE9F7430F4606460821C06ADFF850904F
:105660000EF0D5FE3C68241A80463C6004EA090529
:10567000AC4203D8002003B0BDE8F08308236A469B
:10568000214630460EF048FE0028F4D169463046E7
:105690000EF0C7FE40B1BDF80230BDF804203C60FA
:1056A00005EA090513441D44A4EB0804E0E700BF24
:1056B0000000FFFF73B504460821C06A124E0EF0C9
:1056C000A6FE4FF6FF726368ADF800208DF8062045
:1056D000A289191833401344181A002560606846DF
:1056E000ADF80210ADF804500EF084FE6946204675
:1056F0000EF057FF2046211D0EF047FE6368284636
:105700003340A36002B070BD0000FFFF2DE9F047F9
:1057100004468AB000F11407384610F03AF8A06A3F
:105720008368DB689847E06248B98E498E480EF07E
:105730006AFE6FF0150528460AB0BDE8F087A06A3A
:105740008368DB6898470368013B1F2B01D98749B1
:10575000ECE7A06A216807AA0FF07FFC08B1844932
:10576000E4E7A5892DB1089BB5FBF3F203FB1255C5
:105770000DB18049DAE7E389012B01D87E49D5E7ED
:10578000E36A019593F805904FF0FF334FF0FF3235
:1057900038460AF0F3FDE06A08210EF038FEA8460C
:1057A0000646E3891FFA85FA53451BD8E38943452A
:1057B00000F04C8153450BD1019908234A46891BBF
:1057C00020460EF0B7FD18B901A920460EF0DDFD08
:1057D00001A92046FFF73CFF054608B338460AF00A
:1057E00083FEA8E7A1892B04891B13FA81F14A469D
:1057F0000823204601910EF09DFD78B101A92046B5
:105800000EF0C3FD08F10108019908234A4620461D
:105810001FFA88F80EF08EFD0028C7D00135C0E7CA
:10582000019B63604FEA13484FEA0848C4F80880B8
:10583000D4E9011399420FD3082303AA20460EF09E
:105840006BFD05460028C9D103AB13F8012B914528
:1058500035D10135082DF8D163681B0C1B0401A953
:10586000204601930EF091FDA38901994A462046F6
:105870000EF060FD051EB1DB636800F08F8006EB63
:1058800003084FF6FF79A389CDF804801FFA88F248
:105890009B1B9A422FD300236168002B45D0090C33
:1058A00009040191204601A90EF06FFD01992046DF
:1058B0000EF078FD0546002D00F08D808EE703A9DF
:1058C00020460EF0AEFD626810B9921B6260AFE731
:1058D000BDF81050BDF80E10E06AC4F808802944E5
:1058E0000EF095FD40449042A060EED1002DECD02A
:1058F0006FF01C05A5E0082305AA414620460EF0DE
:105900000BFD054600287FF469AF05A920460EF07F
:1059100088FD30B1BDF814304B4502D1BDF81830C8
:105920000BB1B044AFE70123B6E720460EF03AFDD5
:10593000054600287FF452AF6368104AA1891340DE
:105940000B44A3EB46031A40A260636004F12C02EF
:1059500004F50B7142F8043F9142FBD120460EF052
:1059600054FEA7E786720100985E0100A87201004C
:10597000C5720100DD720100F17201000000FFFF3D
:105980005B1A4A4620460EF0D5FC051EFFF626AFF0
:1059900008D0E26AA36812681344A360D4E9013115
:1059A0008B42EDD86168A38901EB46029A4282D10D
:1059B000DFF8AC80A26801EA08039A423FF47BAFAB
:1059C00020460EF0EFFC054600287FF407AF636821
:1059D00003EA0803A3604FF40072FF2104F13000D2
:1059E00010F01FF8636802934FF6FF7805AA02A92A
:1059F0002046DDF808900EF051FD054600287FF4A2
:105A0000EDAEBDF8140040450DD00EF068FC04EB7F
:105A100080052B6B013306D105A920460EF001FD50
:105A200008B1C5F830906368029A9342DED1A2892A
:105A30009BB2A2EB460293420BD120460EF0CEFD64
:105A4000054638460AF050FD35B174E66FF02C0576
:105A5000C4E638460AF048FD0123237400256AE6AF
:105A60000000FFFF2DE9F04F1D4691B0037C01922D
:105A700004460F464BB96F496F480EF0C4FC6FF0F7
:105A80000C02104611B0BDE8F08FC26A0821104622
:105A90000EF0BDFC2946029010460EF0B8FCA3891A
:105AA000029AA3EB8203AB420646C0F0C08055B910
:105AB00038460EF014FC0C3054F8203005930133B6
:105AC0004DD10022DDE7019B002B00F0B08038466D
:105AD0000EF005FC0C3054F82030059301333ED114
:105AE000002E40F08E8004F1140A4FF0FF324FF088
:105AF000FF3350460AF042FC4FF00009E389994514
:105B000000F09280A168626873189A427DD3FF23E7
:105B1000019A8DF8263020462B46ADF82210ADF8BC
:105B20002070ADF824500EF003FD29460246E06ACD
:105B30000EF06DFCA3680344A36052B908A80EF0F0
:105B400059FC08A920460EF02CFD002814BF02467F
:105B50002A46019250460AF0C7FC019A91E706AA2C
:105B600005A92046DDF814A00EF098FC0246002896
:105B700087D1BDF81830BB4206D06268059B9A42B7
:105B8000EDD1002DACD19CE706A920460EF049FCD2
:105B90000028F2D0BDF81A90BDF81C3055B39D42D4
:105BA0009ED1E36ADDF804B01B684FEA1A4A5B42F3
:105BB0004FEA0A4A03F02003D1440393AA46DDF8D2
:105BC0000C80D04528BFD04608AA43464946204607
:105BD0000EF0A2FB021E11D1424608A958460FF052
:105BE00002FF00287FF47CAFBAEB080AC144C3442B
:105BF000E5D166E7002B7FF473AF62E73FF770AF44
:105C00003FE7029B1E44B6B26DE72046FFF752FD08
:105C1000024600289DD120460EF0F7FC02460028DF
:105C200097D109F1010969E76FF01B0291E76FF065
:105C3000150226E772720100985E01002DE9FF4708
:105C40001F46037CBDF8309004460E46904643B98B
:105C50002F4830490EF0D7FB6FF00C0004B0BDE8C0
:105C6000F087C06A08210EF0D2FBA389A3EB4003A2
:105C7000BB424AD330460EF032FB0C3054F820A021
:105C8000CDF804A0BAF1FF3F1AD16FF00100E5E7AB
:105C900002AA01A920460EF001FC0028DED1BDF8C1
:105CA0000830B34206D102A920460EF0BAFB08B173
:105CB0000135ADB26268019B9A4202D1514608E0BB
:105CC00000254D455146DDF804A0E1D963685345F0
:105CD00003D1BDF80830B342D7D1BDF80C30002B4A
:105CE000D3D0A945D1D8BDF80A00090CBB424FEA70
:105CF000014128BF3B460144424620460EF00CFBC2
:105D00000028ABD1BDF80C00A8E76FF01500A5E79F
:105D1000985E01007272010030B51049104889B0D8
:105D200000220FF029FE0F4D0F494FF400320023DF
:105D3000CDE9062300240E23CDE90334CDE9014447
:105D40000A4B00944FF4806228460BF029F9084969
:105D500028460BF0ADF8204609B030BDA15E00002A
:105D600090560020E8150020009700207561000083
:105D70001B7301002DE9F047DFF858800446074601
:105D80004FF0010914B93846BDE8F08794FAA4F53C
:105D9000B5FA85F509FA05F32E0108EB05156FEA4A
:105DA000030A24EA03042B7B002BEBD058F80630BF
:105DB0001B694BB94644042273682846196807EAF0
:105DC0000A0700F0BFFADDE7284698470028D9D136
:105DD000F0E700BF485F01002DE9F047DFF8AC9025
:105DE0002B4CA9EB04038F2B80460F460AD9294977
:105DF000294840F23F120EF080F840F23F1125484A
:105E00000EF072F825480EF0F3FC064640B300256C
:105E10002846BDE8F087237B6BB12368DB680BB1B4
:105E20002046984723681B6993B963680422196860
:105E3000204600F087FA013610344C4514D9154934
:105E400015484FF4A6720EF058F84FF4A671D6E735
:105E5000204698470028E8D00AFA06F31D43EAE7EF
:105E600005464FF0010AE8E7D5D3B8F1000FCFD0CF
:105E7000002DCCD02846FFF77DFF0546002FF7D038
:105E800000214FF4A4700BF053FFF1E7585F0100BD
:105E9000485F0100237301004C6D0100905D0020FC
:105EA00001480AF071BC00BF44040020014B53F8C4
:105EB000200070476061010008B5034608462BB119
:105EC000044A136000F074FD002008BD6FF0150057
:105ED000FBE700BF0001002010B5044C237813B984
:105EE00003480AF051FC0123237010BDD48A00201E
:105EF0004404002010B504460B480EF079FC5CB158
:105F0000BFF35B8F094B53E8001F013943E80012D0
:105F1000002AF8D1BFF35B8F05480FF039FD054823
:105F2000BDE810400AF030BC885D00208C5D002088
:105F300090560020440400200020064BBFF35B8FE6
:105F4000014653E8000F43E80012002AF9D1BFF3DD
:105F50005B8F7047885D002070B5FFF7EDFF0E4C3A
:105F60000E4E0546B44215D90D490E4840F2FF12B7
:105F70000DF0C3FF0A4840F2FF110DF0B5FF636852
:105F80005B792BB123685B6813B12946204698479B
:105F90001034E7E7F3D370BD485F0100585F01009C
:105FA000237301004C6D010010B5044C04492046D8
:105FB000FEF792FD034B1C6010BD00BF34030020B0
:105FC0004C610100805D0020084A094808B50023A3
:105FD0001370084A1360084A4FF400411360FFF73A
:105FE0006BFFBDE80840FFF7DFBF00BFD58A002088
:105FF000ED470100885D00208C5D002001460022F5
:1060000001480023FEF796BD340300200148FEF747
:1060100087BE00BF34030020024B01461868FEF71C
:10602000F5BE00BF805D00200148FEF74FBF00BFF6
:106030003403002070B52E4B1878002857D0FFF796
:10604000E5FF054640B3BFF35B8F2A4B53E8001FC3
:10605000013943E80012002AF8D1BFF35B8F264CC8
:10606000264EB44214D92649264840F2F3120DF0C8
:1060700044FF234840F2F3110DF036FF63685B796B
:1060800023B1236829461B68204698471034E8E767
:10609000F4D32846FFF7C0FF1B4B1C4C1B68002B9A
:1060A00019DD0FF022FC4FF47A72A0FB020302FB11
:1060B0000131C30BD4E9002043EA41439B1A4FEA64
:1060C000D13140F2E93261EB0001934271F10001FC
:1060D00001D3FFF741FFD4E9003213F57A7342F19F
:1060E0000002C4E90032BDE87040FFF79DBF70BDFB
:1060F000D48A00208C5D0020485F0100585F0100B9
:10610000237301004C6D0100885D0020885600203B
:1061100070B5134D297809BB0120FFF75DFE114CC6
:10612000114EB44213D9114911484FF4DC720DF0ED
:10613000E4FE0E484FF4DC710DF0D6FE63685B7927
:106140001BB1236820469B6898471034E9E7F5D3D4
:10615000FFF770FF0028FBD101232B7070BD00BF3B
:10616000D58A0020485F0100585F010023730100B9
:106170004C6D01002DE9F0472C4B2D4FFB1A1B09EC
:106180000AD12C492C4840F292320DF0B6FE40F272
:10619000923128480DF0A8FE00210846FFF71CFEAA
:1061A000044640B340F267684FF000090BF00CFE64
:1061B000224B186030B1224B1B68092B02DD2148AD
:1061C0000AF0E2FADFF87CA0002544B12046FFF790
:1061D000D1FD044618B94FF0FF384FF0FF39FFF7F3
:1061E00029FF064628B95DB942464B4650460AF09B
:1061F00011FB3546E9E74FF0FF384FF0FF39D5E79F
:106200000A4D08E0F0D22B689B691BB100221146B1
:10621000284698471035BD42F4D90649064840F251
:1062200086320DF06AFE40F28631B2E7485F010027
:10623000585F0100237301004C6D0100845D002054
:106240008C5D00204404002013B526480EF0D0FADF
:10625000254B1B785BB3EFF31184402383F3128843
:10626000BFF36F8F21480BF029FF40B92049214827
:1062700088220DF042FE88211D480DF035FE1B4896
:106280000BF040FFFFF7D6FE18480BF025FF40B992
:106290001749184840F231120DF02FFE40F231112B
:1062A000EAE784F31188BFF36F8F02B010BD124B81
:1062B0001B68002BF9D050B900220023CDE9002340
:1062C0000E4840F6CD4200230CF0EAF9EDE709282C
:1062D000EBD10A480FF05CFB094802B0BDE8104062
:1062E0000AF052BA8C5D0020D58A00207C5D002027
:1062F000A67101004C6D0100845D002090560020C5
:106300004404002010B5064B1B68044698472146FC
:10631000A0600448FEF7BEFCBDE81040FFF794BF44
:106320000001002034030020044A054B9B1AB1EB06
:10633000D30F34BF52F8310000207047585E01007F
:10634000485F01000E4BC31A1B11013310B5DBB2BD
:1063500040B90C490C48DF220DF0CFFD0948DF2180
:106360000DF0C2FD4468237143689A714368196057
:10637000436801225A71BDE81040FFF7ADBD00BF70
:10638000485F0100817301004C6D01002DE9F04F61
:106390008FB004AFC1F34A28B8600D4691467B60C8
:1063A0000C0DB8F1000F67D0002607F114034FF071
:1063B000040B4FF00A0AC7F80C80C7E907667E6233
:1063C0000193CDF808B0CDF800A007F11C03F968DF
:1063D00032464846FDF74EFAB0F5006F03461CD32F
:1063E0006C468AB0D9F8041004AB2C48C3E9050107
:1063F00040F2FF71D9611A464FF400711984284B9D
:1064000042F8103F274833464FF41251FFF7BEFFC2
:10641000A5462C37BD46BDE8F08FC0F30A0804F14D
:106420001700184420F0070080083B60FFF7E6FDE6
:1064300068F35325044638B33B681B4AC7E908365E
:1064400000F1100107F11403F961CDE900A3CDF8C3
:1064500008B0F96807F11C034846FDF70BFA00285D
:1064600012DA124912484FF4A3720DF046FD0F489C
:106470004FF4A3710DF038FD04F1170020F0070070
:106480008008FFF7BBFD044668F353257B68B968B5
:106490002A4620460EF0E2F9BBE700BFC2730100B6
:1064A00004000001B05E01003148010001740100E8
:1064B0004C6D01002DE9F04F87B0DDE91279DDE97F
:1064C000106A04460391934698461FB3CDF8009096
:1064D0003B46524610210020CDF81490FCF7CEFF29
:1064E000051E0ADA2549264840F265120DF005FD21
:1064F00040F2651121480DF0F7FCB5F5006F0ADB9D
:10650000204A214840F2FF73022107B0BDE8F04F56
:106510000EF0FDB93D4606F11700284420F00700B3
:1065200004F007048008FFF769FD0BF0070BE40097
:1065300044EA8B1444EA452444EA0654064698B1DA
:1065400097B1CDF800903B46524629461030FCF7F3
:1065500095FF002808DA0949094840F285120DF034
:10656000CCFC40F28511C5E70399434622463046EC
:1065700007B0BDE8F04F0EF071B900BF0174010023
:106580004C6D01002D740100B05E0100406820B127
:10659000034BC01A40F3CF0070474FF0FF307047F5
:1065A000585E01000EB403B503AB014653F8042B4B
:1065B000044801930EF0DCF902B05DF804EB03B07F
:1065C000704700BFE5650000CA0605D48B064CBFC6
:1065D00002490349FFF7E6BF704700BF6674010038
:1065E0006574010038B54B681A68CB689A42054655
:1065F0000C4602D108460EF0AEF96368BFF35B8F1C
:1066000053E8002F511C43E800100028F8D1BFF3D5
:106610005B8FA3689D5463681A68E3689A4208D93F
:10662000054906487B220DF068FC03487B210DF0EC
:106630005BFC002038BD00BF687401004C6D010098
:106640002DE9F04F89B09A46149B06939DF84CB003
:10665000159B0593169B179E049304460D46904682
:10666000BBF1000F00F0AC80BBF1040F0AD9A349C5
:10667000A34840F24D220DF040FC40F24D219F48CE
:106680000DF032FC06F4807307930EF0CFF806F09D
:106690000209024600283FD09A492046FFF782FFB0
:1066A0000746B9F1000F08D016F0440F36D19649CD
:1066B0002A462046FFF776FF074406F0010353B150
:1066C000924B934953F82B20924B2046002A08BF47
:1066D0001A46FFF767FF06F48073002B4AD006F0D6
:1066E0000803002B64D1B8F1000F67D08A494246F5
:1066F0002046FFF757FF0546069B3D44002B6ED111
:10670000049B002B40F08280F30700F1F0803146BB
:106710002046FFF759FFE4E00746C2E77F4B1868C1
:106720000028C9D07E4B4FF47A791B68B5FBF3F58E
:106730004FF46161B5FBF0F300FB135509FB05F560
:106740004FF03C0CB3FBF1F201FB1231B5FBF0FE54
:10675000B1FBFCF300FB1E550CFB131109FB05F507
:106760000091B5FBF0F56F49CDE901E52046FFF753
:1067700019FFA1E706F00803EBB16B4B6B4953F827
:106780002B202046FFF70EFF0546B8F1000F05D07D
:10679000614942462046FFF705FF0544BAF1000F64
:1067A000AAD0634952462046FFF7FCFE0544A3E702
:1067B0004FF0000AE1E706F00805E6E745469BE7EB
:1067C000BAF1010F069B06D1D3B9049B002B00F050
:1067D000888000251AE0002BF7D0564811E0564873
:1067E000069B564922460DF0A9FA00280BDA4349C8
:1067F000434840F2A7220DF080FB40F2A7213EE77C
:106800004D485D46ECE7049B002B66D0DFF83081F5
:10681000DFF83091049F3146102F204628BF102703
:10682000FFF7D2FE4FF0000A554543DC059B494671
:106830001A782046FFF7B6FE4FF0010A1AF0070F4C
:1068400003D141462046FFF7ADFE574539D9059B98
:10685000494613F80A202046FFF7A4FE0AF1010A70
:10686000BAF1100FEAD1384920464FF0000AFFF77D
:1068700099FE5246059B9A5C344B995C11F0970F38
:1068800008BF2E2232492046FFF78CFE0AF1010A8A
:10689000BAF1100F1AD01AF0070F03D14146204663
:1068A000FFF780FE57455246E4D841462046FFF7A1
:1068B00079FEEBE741462046FFF774FE0AF1010A34
:1068C000B2E724492046FFF76DFEC7E7059B3B442E
:1068D0000593049BDB1B04939CD1BBF1000F7FF459
:1068E00013AF204609B0BDE8F04F0EF034B8094AA6
:1068F00007492046FFF756FE09E700BF687401000C
:106900004C6D01009C740100A074010070610100D5
:106910003E85010097740100C5740100985D002058
:10692000945D0020A974010084610100C974010014
:10693000CF7401007F490100E56500007149010045
:10694000DC740100D4740100DE7401001E8C0100AF
:10695000E0740100DA74010073B542F20F738B42E8
:1069600028BF0B4605680F4A0446052168460DF00E
:106970005EFA63680C495B6806460B2228460DF0F8
:10698000DCFF63683246694628465B680DF0D5FF38
:10699000636806495B681B2228460DF0CEFF02B0F3
:1069A00070BD00BFA0690100FF740100E374010025
:1069B000074A00210123904206D8064A01B9012363
:1069C0001360054B1860704740085B000121F2E737
:1069D00040420F00945D0020985D0020F8B5074FFD
:1069E0000D4604464618B44201D12846F8BD14F8B5
:1069F000011BBB6801485B689847F4E7845B0100B2
:106A000010B543681C6808480EF06AFE40B9074993
:106A1000074899220DF071FA044899210DF064FAA3
:106A200023685B685C6010BD845B01002B7501000E
:106A30004C6D0100014B036000207047CC610100E8
:106A40002DE9F047194CDFF86880DFF868900546BB
:106A50000E461746444524D9174918484FF4BB62DF
:106A60000DF04BFA14484FF4BB610DF03DFA62682B
:106A7000D9F824309A4212D3A36983B19078297946
:106A8000884205D13A4631462846BDE8F0471847C6
:106A90005279012A03D13A46314628469847243490
:106AA000D8E7E4D36FF08500BDE8F0879C050020AF
:106AB000E4050020C05D0020837501004C6D0100DD
:106AC0002DE9F041124B134F5E6A134BBB421AD9AA
:106AD0001249134840F2BB520DF00FFA0F4840F232
